S02400004C5546415F50524F4A454354535F5553425F544F5F53455249414C312E7372656374
S2140000009AC00000B7C00000B5C00000B3C0000032
S214000010B1C00000AFC00000ADC00000ABC0000023
S214000020A9C00000A7C000000C9441BF0C9404C0F7
S214000030A1C000009FC000009DC000009BC0000043
S21400004099C0000097C0000095C0000093C0000053
S21400005091C000008FC000008DC000008BC0000063
S21400006089C000000C94BCBA85C0000083C00000A4
S21400007081C000007FC000007DC000007BC0000083
S21400008079C0000077C0000075C0000073C0000093
S21400009071C000006FC000002E034C0055004600E3
S2140000A0410020005500530042002D00520053002E
S2140000B0320033003200200041006400610070000E
S2140000C074006500720000001803440065006100BB
S2140000D06E002000430061006D0065007200610044
S2140000E000000403090409023E00020100C03209B0
S2140000F0040000010202010005240010010424028D
S214000100060524060001070582030800FF0904010E
S21400011000020A0000000705040210000507058318
S214000120021000051201100102000008EB034B202C
S21400013001000102DC0111241FBECFEFD0E2DEBFBA
S214000140CDBF1AE2A0E0B1E0E2E9F5E801E00BBFBE
S21400015002C007900D92A234B107D9F72CE6A2E4AC
S214000160BAE201C01D92A434B207E1F70E94BAB900
S2140001700C94C7C245CF089508950895089508952C
S21400018008950895E091686BF091696B2281338140
S2140001908217930740F40190F081E02D228133818D
S2140001A082179307C0F3821B930B0496880F991F40
S2140001B0E80FF91F80819181089508958038910590
S2140001C038F4FC01E556F64D80818695817001C0B5
S2140001D080E0817008958038910540F4FC01E55672
S2140001E0F64D808183FB882780F901C080E081700E
S2140001F008958038910540F4FC01E556F64D80815F
S21400020082FB882780F901C080E0817008958038DD
S214000210910538F4FC01E556F64D80818295817093
S21400022001C080E0817008958038910540F4FC019B
S214000230E556F64D808185FB882780F901C080E071
S21400024081700895CF93DF93EC01E1DF882319F0E6
S214000250CE01809601C0CE01DF91CF910895CF9355
S214000260DF93EC01E1DF882319F0CE01809701C00F
S214000270CE01DF91CF910895FC01A481B5818681DE
S2140002809781A817B90738F4CD0101969583848322
S2140002908C9190E008958FEF9FEF0895CF93DF93B2
S2140002A0EC01888599858A30910551F48E859F8565
S2140002B001969F878E8781E090E0998B888B0FC090
S2140002C0099741F4888999890796887F0196998BC2
S2140002D0888B05C0888999890196998B888B8A8531
S2140002E09B85998788878C859D859B878A87EC81E7
S2140002F0FD818A819B8109959D878C872A853B8510
S2140003002D30310569F42AE030E03B872A870A97CA
S214000310B9F4EC81FD818A819B8109959D878C8744
S2140003208C859D85019661F48A859B858F3F2FEF8E
S214000330920731F00A9721F08AE090E09D878C873B
S214000340DF91CF910895FC0127813085232B71F42E
S2140003506115710559F09B0123703327232B31F467
S214000360FB0120813181FC01308727830895AF92FD
S214000370BF92CF92DF92EF92FF920F931F93CF938D
S214000380DF9361157105A9F15901FB018C01CB01C1
S21400039083709927892B49F584819581A681B78139
S2140003A06C017D01DD24EE24FF2450E060E070E067
S2140003B0C416D506E606F706C1F4892F9A2FAB2F8A
S2140003C0BB2718161906ACF4EF0128960496880F7A
S2140003D0991F6F01C80ED91E69917991C801F50160
S2140003E00995CC15DD05C1F704C0BF01C801F501AC
S2140003F00995DF91CF911F910F91FF90EF90DF90BD
S214000400CF90BF90AF900895FB016085718526EC74
S2140004103EE641E9ACCF0895FB016085718523ED8A
S21400042030E845E6A4CF089508950895863029F467
S214000430CB01880F991F8160089580E090E00895B1
S214000440843019F08530B1F029C0FB012281269551
S214000450269526953381432F4295440F407E842F60
S214000460822B932F969596959695892BD1F48EE0B0
S21400047090E00895FB0122812695269526953381E6
S214000480432F4295440F407E842F822B932F9695C0
S21400049096959695880F991F8160089580E090E064
S2140004A008958EE190E0089580E090E0089584300D
S2140004B019F0853049F00FC0FB0184819581892BA6
S2140004C069F48EE090E00895FB0184819581880FA1
S2140004D0991F8160089580E090E008958EE190E095
S2140004E00895DC011496ED91FC91159716962D91C2
S2140004F03C911797848195812817390788F4A901BC
S214000500440F551F0680F781E02DE40FF51F80810C
S21400051091812F5F3F4F17963C932E931697089521
S21400052080E090E00895FB012AE93CE131832083D6
S21400053021E732E0338322839583848317821682F1
S214000540CB010895DC011296ED91FC911397099565
S2140005500895FC0146815781141615063CF4228145
S214000560338184819581281739074CF0552394F4FC
S21400057022813381848195818217930774F42281C6
S2140005803381C901880F991F240F351F33832283B7
S2140005908160089580E090E0089580E090E00895FE
S2140005A0FC01668177818481958122813381821B5B
S2140005B0930B860F971F1616170614F4019701C0A3
S2140005C001960E94FCC1CB01992314F480E090E0D0
S2140005D00895CF93C82FCB01E3DFC43019F0C530A0
S2140005E039F00AC01816190654F08EE090E009C0DB
S2140005F0880F991F816005C080E090E002C08EE100
S21400060090E0CF910895DC01FB0116968D919C91A8
S214000610179714962D913C91159712964D915C91D3
S21400062013976AE57CE17183608353834283358345
S214000630248397838683CF010895CF93DF93DC01CD
S214000640EA018617970718F58C9180538A30F8F4DC
S21400065019821882E881F9819F01220F331FEE0F5D
S214000660FF1FEE0FFF1FEE0FFF1F2E0F3F1FED9118
S214000670F0E0F0972E0F3F1F398328836A177B0719
S21400068029F08C9180538A3028F301C0DB01CD011C
S214000690DF91CF9108958E309105B9F08E31910596
S2140006A0B9F09C012170332780FD15C0AC01437062
S2140006B05527452B91F451E0FC0180819181885BA0
S2140006C09D4109F050E0252F08C021E030E005C02C
S2140006D021E030E002C021E030E0822F81700895F2
S2140006E0FB012AE93CE13183208328E031E83383AB
S2140006F022839583848317821682CB010895FB019B
S2140007002AE93CE13183208326E43CE033832283DC
S2140007109583848317821682CB010895CF93DF9347
S214000720DC0116962D913C9117971496CD91DC918D
S21400073015978A819B812817390778F4F901329634
S214000740EE0FFF1FEC0FFD1F808191812F5F3F4F43
S21400075017963C932E93169702C080E090E0DF91A8
S214000760CF910895FB012AE93CE1318320832EE8EE
S21400077033E0338322839583848317821682CB01EA
S2140007800895FC018A5B9C4111F1808591858F5309
S2140007909B4459F4048CF58DE02D309789F41AC0EB
S2140007A0808591858F539B4431F0DB01ED93FC935C
S2140007B081E090E00895048CF58DE02D309769F087
S2140007C0BCE1EA3BFB0761F780E090E0089580E03B
S2140007D090E0089580E090E0089580E090E008952D
S2140007E0CF92DF92EF92FF920F931F93CF93DF93F8
S2140007F000D0CDB7DEB77C01062F172FD801CD90DD
S214000800DD908D011A821982BE016F5F7F4FF6015F
S21400081080819181B6DF89819A81B7016150710923
S214000820DC011896ED91FC911997980140E050E094
S2140008300995F6019187808786E090E00F900F90EB
S214000840DF91CF911F910F91FF90EF90DF90CF90A7
S21400085008958091606B9091616B089580915E6BB6
S21400086090915F6B0895DC0118962D913C91199735
S2140008706217730710F00E9440C221503048261BB2
S214000880370B220F331FDC011A96ED91FC911B9754
S214000890E20FF31F808191810895DC0118962D9157
S2140008A03C9119972115310511F40E9440C21A9601
S2140008B0ED91FC911B972150310919963C932E938C
S2140008C01897220F331FE20FF31F8081918108953E
S2140008D0FC018381843040F481899289680F791FF6
S2140008E0728B618BCF01089581899289680F791F79
S2140008F0238934892617370710F40E9440C2218DB9
S214000900328D728B618B820F931F0895CF93C62F03
S21400091061E070E0DDDFFC01C083CF910895FC014B
S2140009208381843040F485899689680F791F768B99
S214000930658BCF01089525893689620F731F8789D5
S214000940908D8617970710F40E9440C28389948979
S214000950820F931F218D328D768B658B820F931FAE
S2140009600895CF93C62F61E070E0D9DFFC01C08305
S214000970CF9108950F931F93CF93DF93FC01C4810B
S214000980D581FB01208131812C173D07B0F4FC0195
S21400099006811781F901EE0FFF1FEE0FFF1FE00F14
S2140009A0F11FDF01A01BB10B40815181411551059C
S2140009B061F144305105F1F428C0FC01628166956E
S2140009C0669566958381982F9295990F907E492F0C
S2140009D0462B582F569556955695452B29F0C217F7
S2140009E0D30729F00E9440C280E090E015C080E066
S2140009F090E012C02F5F3F4FFB0131832083FC0144
S214000A00868197818A0F9B1F07C02F5F3F4F3496C2
S214000A102C173D0730F2D1CFDF91CF911F910F9168
S214000A200895DC01FB0183709927892B31F48D91A1
S214000A309C9111978650934211F00E9440C286EE18
S214000A4092E29183808314968C91149782831296F7
S214000A508D919C9113979483838316821582CB0184
S214000A600895CF93DF93FB019C0123703327232B3C
S214000A7051F4EC01A881B98118962D913C911997F3
S214000A802A5A394811F00E9440C226EE32E23183DB
S214000A90208321E022839483838316821582CB01F0
S214000AA0DF91CF910895EF92FF920F931F93CF930C
S214000AB0DF93DC0183709927892B31F48D919C910B
S214000AC011978C529D4111F00E9440C21496CD9110
S214000AD0DC9115978E01DD2314F40F5F1F4F1595DB
S214000AE00795101611065CF5000F111FCC0FDD1FC1
S214000AF020E030E07E0182E0E81AF10816966D915B
S214000B007C911797FB01E20FF31F80819181A7016B
S214000B10421B530B640F751FEB016881798171834B
S214000B20608316966D917C911797FB01E40FF51F75
S214000B30918380832E5F3F4F20173107F9F686E0BA
S214000B4090E0DF91CF911F910F91FF90EF90089565
S214000B50FC012085318527323105C9F12232310565
S214000B60C9F12537310529F0A9014F7E42365105D6
S214000B7049F4FC01428553854732510571F14232F2
S214000B80510571F12237310591F5FC012285338537
S214000B902236310549F080E090E027C0FC0122852E
S214000BA0338522373105F9F4FC0184859585873233
S214000BB0910541F031E020E0829709F030E0832F84
S214000BC0922F02C081E090E0817099270EC081E0EC
S214000BD090E00BC081E090E008C081E090E005C0A6
S214000BE081E090E002C080E090E0817008952236B7
S214000BF03105A1F280E090E0F8CFDF92EF92FF920D
S214000C000F931F93CF93DF93EC01E62EF12CDD2498
S214000C10D39434C00A30110551F4EE2021F08C89AB
S214000C209D89892BB9F1CE0139DBFD2C27C0C8017F
S214000C30C5DA882319F0CE0131DB20C00332110556
S214000C40A9F4CE012BDB888599858F3F2FEF92077D
S214000C50A9F00A9799F0CE0121DB888599858F3F08
S214000C602FEF920759F00A97B1F708C00C35110517
S214000C7089F48A859B850A9769F407C008851985D3
S214000C800F3F8FEF180731F605C0CE0107DBCE0108
S214000C9005DBF4CF8F2DDF91CF911F910F91FF9041
S214000CA0EF90DF900895292F33272230310559F031
S214000CB02330310569F02130310521F582E190E0DD
S214000CC024E231E028C08EE390E026EE30E023C038
S214000CD099278130910551F018F0029769F017C0F6
S214000CE0E2EEF0E0849190E09F0115C0E8ECF0E0C1
S214000CF0849190E09F010FC0E8E9F0E0849190E0D5
S214000D009F0109C080E090E020E030E004C080E071
S214000D1090E020E030E0FA01318320830895EAE590
S214000D20FBE620853185DC012D933C9391878087F7
S214000D3080E090E00895EAE5FBE6A085B1858D9118
S214000D409C91918780870895CF93DF93EC01FB01F8
S214000D50E87F9F01281B390BAFE3B8EF0E9431C232
S214000D60AC0156954795529542954F7045275F7052
S214000D7045275093AD6B4093AC6BD093AB6BC09351
S214000D80AA6BCA01880F991F82959295907F982723
S214000D90807F98279F01281B390B3093AF6B2093D9
S214000DA0AE6BF093B16BE093B06B60E070E0CE0199
S214000DB00E94ACC21092376C1092366C10925D6B2B
S214000DC010925C6B81E090E09093356C8093346C6D
S214000DD0DF91CF910895EAE5FBE682819381019643
S214000DE0938382830895F7DF86E090E00895EAE52E
S214000DF0FBE6828193810197938382830895F7DFD0
S214000E0080915C6B90915D6B880F991F816008954F
S214000E108F929F92AF92BF92CF92DF92EF92FF9205
S214000E200F931F93CF93DF930796EC01D695C79544
S214000E30D695C795D695C795209709F4F1C08091A9
S214000E405C6B90915D6B892B09F0EDC091E080E0C2
S214000E502091346C3091356C232B09F090E0892E6C
S214000E60982E0F2EF6E3EF2EFCE6FF2EF02D0CEA62
S214000E701BE60F2EFAEACF2EFBE6DF2EF02DBB2464
S214000E80B394A12CF70140815181F80180819181B2
S214000E904817590708F050C0F601A081B181FD013E
S214000EA0E40FF51F20E030E06191762F737051F467
S214000EB02F5F3F4F2C173D0738F0440F551F440F48
S214000EC0551F41C020E030E0762F7C7061F42F5F24
S214000ED03F4F2C173D0748F0440F551F440F551F32
S214000EE04F5F5F4F30C020E030E0762F707361F4C4
S214000EF02F5F3F4F2C173D0748F0440F551F440FF8
S214000F00551F4E5F5F4F1FC020E030E0607C61F4ED
S214000F102F5F3F4F2C173D0748F0440F551F440FD7
S214000F20551F4D5F5F4F0FC020E030E04F5F5F4FB3
S214000F304817590708F4B8CF892809F077C01BD995
S214000F408B2C9A2C9FCFCA01821B930BBC016F5F20
S214000F507F4F2130310559F49A012F5F3F4F369568
S214000F602795369527953093376C2093366C9B01E2
S214000F703695279536952795A20FB31FFB01E3708C
S214000F80FF27EE0FFF1F21E030E002C0220F331FC5
S214000F90EA95E2F73C91232B2C93029648175907C3
S214000FA000F1CAEADBE6A2E0B0E09C0136952795A0
S214000FB036952795E881F981E20FF31F9C0123708F
S214000FC03327220F331F8D0102C0000F111F2A95F1
S214000FD0E2F798013081232B2083019648175907A2
S214000FE020F7CB01880F991F880F991F880F991F2C
S214000FF0C091AE6BD091AF6BC80FD91F4F5F5F4FDC
S214001000461B570B440F551F440F551F440F551FC3
S21400101060E070E0CE010E94ACC28C2F9D2F08C00D
S21400102080E090E005C080E090E002C080E090E0C4
S214001030DF91CF911F910F91FF90EF90DF90CF90AF
S214001040BF90AF909F908F90089560E070E0E0CEE4
S214001050089520915C6B30915D6B232B09F087C05F
S214001060009709F484C09C0127703327232B71F462
S2140010702091AE6B3091AF6B8217930738F040919A
S214001080B06B5091B16B8417950710F00E9440C268
S214001090821B930B9C01369527953695279536959A
S2140010A0279596958795929582958F7089279F703C
S2140010B08927E091AA6BF091AB6BE80FF91F40818E
S2140010C050E0B90163707727660F771F02C0559509
S2140010D047956A95E2F7437055274130510511F060
S2140010E00E9440C24091366C5091376C8417950729
S2140010F020F49093376C8093366CAAEABBE643E004
S21400110050E0C9019695879596958795ED91FC9147
S2140011101197E80FF91FC90183709927880F991F47
S214001120BA0102C0660F771F8A95E2F7CB01809559
S2140011309081892380832F5F3F4FC90196958795BD
S21400114096958795ED91FC911197E80FF91F808190
S21400115090E0B90163707727660F771F02C09595F8
S21400116087956A95E2F783709927029751F208955A
S214001170CF93DF93EC0188819981892B19F08A81BE
S2140011809B8167DFCE0165DFDF91CF9108959F9247
S214001190AF92BF92CF92DF92EF92FF920F931F9380
S2140011A0CF93DF938C01CB01942E0115110521F40A
S2140011B060E070E02DDE7AC1009729F4C80149DFAF
S2140011C080E090E073C120915C6B30915D6B232BC7
S2140011D009F05FC1980127703327232B71F4209103
S2140011E0AE6B3091AF6B0217130738F04091B06BBF
S2140011F05091B16B0417150710F00E9440C2A80169
S214001200421B530B9A01FA01F695E795F695E7957A
S214001210F695E795C090AA6BD090AB6B3695279560
S214001220329522952F7023273F702327D601A20FD1
S214001230B31F2C9130E0AF0143705527440F551F64
S21400124002C0359527954A95E2F72370332721305B
S214001250310511F00E9440C2AB01495F5F4F5695C1
S21400126047955695479556954795A090AC6BB09088
S214001270AD6BAA0CBB1CAA0CBB1CBF016F5F7F4FDB
S2140012806A157B0568F5C1E0D0E0E12CF12CDB01A6
S214001290B695A795B695A795AC0DBD1D2C9130E0DB
S2140012A0DB01A370BB27AA0FBB1F02C0359527958D
S2140012B0AA95E2F72370223011F421960BC0211173
S2140012C013C0AFEFEA1AFA0A97012C0F3D1F241736
S2140012D0350750F46F5F7F4F6A157B05C0F204C078
S2140012E0C1E0D0E0E12CF12C4C175D0709F4D4C026
S2140012F04C175D0708F03FC07F01E40EF51EC41BC7
S214001300D50B29F1CE0DDF1DB701EAEAFBE683E037
S21400131090E09B013695279536952795A081B1815B
S214001320A20FB31F9B0123703327220F331FAC017C
S21400133002C0440F551F2A95E2F79A0120953C916A
S21400134023232C936F5F7F4FC617D70711F7F7013C
S214001350F695E795F695E7958091366C9091376C03
S214001360E817F90708F09BC0F093376CE093366CEB
S214001370802F912F9BC0EC0EFD1EE416F50608F498
S21400138071C0CF018C0F9D1FE40FF51F8E179F07AE
S21400139008F050C0DC01B695A795B695A795AC0D9C
S2140013A0BD1D9C905C0123E0A222BB24AA0CBB1CA2
S2140013B0292D30E00A2C02C0359527950A94E2F7CD
S2140013C023703327232B41F562E070E00F2EFAEAF4
S2140013D0EF2EFBE6FF2EF02D21C0D701CD90DC903E
S2140013E09C013695279536952795D601A20FB31FF3
S2140013F09C905C0123E0A222BB24AA0CBB1CC92C37
S214001400D12C0A2C02C0D594C7940A94E2F723E0A4
S214001410C222DD24CD2811F00E9440C29B0102C0EA
S214001420220F331FAA94E2F729292C9301968E17D0
S2140014309F0798F24C1B5D0B440F551F440F551F1A
S214001440440F551FCE01880F991F880F991F880FCC
S214001450991F60E070E0800F911F0E94ACC2802F41
S214001460912F24C09920F1F060E070E0D1DC7C017F
S2140014700097D9F0AE01440F551F440F551F440F77
S214001480551FB8010E9492C2C801E3DD8E2D9F2D24
S2140014900DC080E090E00AC0802F912F07C0802FFB
S2140014A0912F04C080E090E001C09F2DDF91CF9186
S2140014B01F910F91FF90EF90DF90CF90BF90AF906D
S2140014C09F90089564CE0895CF92DF92EF92FF9298
S2140014D00F931F93CF93DF93EC017B018A018B81DF
S2140014E09C8169817A819C01240F351F2617370756
S2140014F018F128812223D9F0605F7F4F6B01C40E5C
S214001500D51E41E0B6018D819E81DCDF009751F447
S214001510188209811A81015011098B819C81081B50
S214001520190B0AC0DA82C9829E838D8305C08B019F
S21400153001501109081B190B2D813E818B819C815E
S214001540A801B701820F931F0E9492C28B819C81D3
S214001550080F191F1C830B83DF91CF911F910F91EA
S214001560FF90EF90DF90CF900895FC01680F791FF1
S21400157086179707C8F425E035E1C901880F991F3B
S21400158082959295907F9827807F9827280F391FFD
S214001590819128276E177F0781F7C9019927009741
S2140015A029F481E090E0089585E090E0089582E8CF
S2140015B091E09093696B8093686B1092A36B109286
S2140015C0A26B08954F925F926F927F928F929F9236
S2140015D0AF92BF92CF92DF92EF92FF920F931F933C
S2140015E0CF93DF932C015B01C0DF6C018090686BAA
S2140015F09090696B81149104D9F1340188E0680EEB
S214001600711CF401E680F780EE0CFF1CE60CF71C5C
S2140016106E147F0420F58301E801E991F991208199
S21400162030E0C216D306B9F4818190E0A816B90658
S21400163091F4A501B201CF0102960E9485C2892BC2
S21400164051F40619170915950795F40182819381BF
S214001650800F911F0FC08E01CE15DF05E8F2F40152
S214001660808091808114910441F680E090E002C071
S21400167080E090E0DF91CF911F910F91FF90EF9067
S214001680DF90CF90BF90AF909F908F907F906F909D
S2140016905F904F9008950E94C200FC01808190E008
S2140016A008950E94C200FC01818190E008950E9486
S2140016B0C20002960895CF93DF93EB010E94C2000A
S2140016C0FC01218130E0398328830296DF91CF9197
S2140016D008958F929F92AF92BF92CF92DF92EF9231
S2140016E0FF920F931F93CF93DF9300D0CDB7DEB753
S2140016F06C01FB01CB0187709927029761F4BE014C
S2140017006F5F7F4FCF0196958795969587959695AF
S2140017108795D1DF06C0848195819A8389838681E7
S214001720978129813A81232B09F444C027E0C21609
S21400173021E0D20629F0E4E1CE16E1E0DE0641F42F
S214001740A82EB92EE12CF12C912C8824839416C057
S214001750E82EF92E00E010E0F70181917F0190E07D
S214001760F6010995882349F10F5F1F4F89819A81F9
S2140017700817190788F38EE190E027C0F50101915C
S2140017805F0110E0C8010E94EB00882331F0C80119
S214001790F60109958823A1F0982CFFEFEF1AFF0AAF
S2140017A089819A81E816F90648F3992061F08EE15E
S2140017B090E00BC08EE090E008C08EE090E005C0A0
S2140017C08EE090E002C08EE090E00F900F90DF91E8
S2140017D0CF911F910F91FF90EF90DF90CF90BF9029
S2140017E0AF909F908F900895BC018EED90E071CFE2
S2140017F00895BC018BEE90E06CCF0895BC0189EF94
S21400180090E067CF0895BC0187E091E062CF08952D
S214001810BC0184E191E05DCF08950F931F93CF93B1
S214001820DF9300D0CDB7DEB74130510531F58B01DF
S214001830FC0187709927029761F4BE016F5F7F4FA6
S214001840CF0196958795969587959695879533DFDC
S21400185006C0848195819A83898386819781F80161
S2140018609183808389819A819383828382E490E046
S2140018709583848380E090E002C081E090E00F9042
S2140018800F90DF91CF911F910F9108950F931F93A3
S214001890CF93DF9300D0CDB7DEB78C01DC01149672
S2140018A0ED91FC911597CF0187709927029761F407
S2140018B0BE016F5F7F4FCF0196958795969587956A
S2140018C096958795F8DE06C0848195819A838983EC
S2140018D086819781F8012681378149815A812417AC
S2140018E0350780F4FC01E20FF31F808190E0880F3B
S2140018F0991F2F5F3F4FD80117963C932E9316974C
S214001900816002C080E090E00F900F90DF91CF9151
S2140019101F910F910895CF93DF93EC018E8180FD88
S21400192003C08C819D8195DB1D821C82DF91CF9147
S2140019300895FC01228133812617370718F4138295
S21400194012820895261B370BFC01338322830895E9
S214001950CF93DF93FB0101900020E9F73197EF0169
S214001960C61BD70B49F0DC011296ED91FC9113973C
S214001970AE018D919C910995CE01DF91CF9108958E
S2140019806E30710521F06BE171E0E2CF089560E200
S21400199071E0DECF089568EA77E0DACF08952F92F7
S2140019A03F924F925F926F927F928F929F92AF92EA
S2140019B0BF92CF92DF92EF92FF920F931F93CF9337
S2140019C0DF9300D000D01F92CDB7DEB75C017D83D9
S2140019D06C831A01802F09833701641A750A8F7D7C
S2140019E049F0003391F0CE0101962C0188248394AF
S2140019F0912C15C00F2EF0E34F2EFAE25F2EF02D3D
S214001A006894882484F8912C0AC00F2EFFE14F2E8C
S214001A10FAE25F2EF02D6894882484F8912C27FF34
S214001A200BC0C30177200CF401969595879573013A
S214001A30E81AF90A3C0104C020FD1EC0E12CF12C76
S214001A4016141704ECF463018A829B820A811B81B8
S214001A50C814D9040CF48601D5011296ED91FC91B8
S214001A601397A801B2018D919C910995C01AD10ACD
S214001A701C141D045CF306C07301612C712C02C09B
S214001A80612C712C2114310469F1D5011296ED9167
S214001A90FC911397A1016C817D818D919C91099594
S214001AA0620C731C1E141F0404F56E0C7F1CC82CDD
S214001AB0D92C0C2D1D2DE814F9040CF48701D50142
S214001AC01296ED91FC911397A801B2018D919C910D
S214001AD00995E01AF10A1E141F045CF306C06E0C8A
S214001AE07F1CE5CF1E141F04D4F3C3010F900F9084
S214001AF00F900F900F90DF91CF911F910F91FF9055
S214001B00EF90DF90CF90BF90AF909F908F907F9098
S214001B106F905F904F903F902F9008954F925F92F6
S214001B206F927F928F929F92AF92BF92CF92DF92E8
S214001B30EF92FF920F931F93CF93DF93CDB7DEB74D
S214001B4029970FB6F894DEBF0FBECDBF4C01FB0140
S214001B50C8011E2D4F2C5C2C35011982452B89F0AF
S214001B60FF2334F44DE24983F195E195F10909C06C
S214001B70E1FE03C04BE2498304C0E2FE02C040E23D
S214001B804983309739F480E389876E0149E0C40EB3
S214001B90D11C26C06E01AAE0CA0ED11C5C01BAE0B8
S214001BA0AB1AB1087E0142E0E40EF11CCF01B90188
S214001BB00E94E8C1E62FF72F8A3091051CF08A0DA7
S214001BC09B1D01C0C096D6018E936D01AE15BF0554
S214001BD019F0309759F704C06E01B2E0CB0ED11C55
S214001BE016FF15C08981882309F1EE24E394F12CB1
S214001BF0052D212F342D41E050E0BE016F5F7F4F51
S214001C00C401CDDE5C0141E0641A710817C0898109
S214001C10882379F09E012E5F3F4F2C153D0560F41A
S214001C20F60182936F01A12CB12C08C0A12CB12C17
S214001C3005C0A12CB12C02C0A12CB12CAE01465F70
S214001C405F4F4C195D097301052D212F342DB60108
S214001C50C401A5DE8A0D9B1D29960FB6F894DEBF3B
S214001C600FBECDBFDF91CF911F910F91FF90EF90E8
S214001C70DF90CF90BF90AF909F908F907F906F90A7
S214001C805F904F9008952F923F924F925F926F927F
S214001C907F928F929F92AF92BF92CF92DF92EF92F7
S214001CA0FF920F931F93CF93DF9300D000D0CDB752
S214001CB0DEB71C01DB016A01412C512C8C91882374
S214001CC009F4DCC1853209F17D012FEFE21AF20A30
S214001CD001C07F015701F7018191882309F4B8C13B
S214001CE08532B9F7B5C1EA1AFB0AF10122813381C0
S214001CF0A701BD0180819181F90109954E0C5F1CF9
S214001D00D5018C91882309F4B9C14D01EFEF8E1AE5
S214001D109E0A11968C91882309F49FC100E2612CDB
S214001D20712C8D3219F4689460F81DC08B3219F44A
S214001D30689461F818C0803219F4689462F813C089
S214001D40813219F4689463F80EC0803349F0D401E8
S214001D508C9190ED980F9A3070F0E12CF12C25C004
S214001D60689466F800E3BFEF8B1A9B0AF401808143
S214001D708111D7CF75C1F4013196E12CF12C970172
S214001D80220F331FEE0CFF1CEE0CFF1CEE0CFF1C8C
S214001D90E20EF31EE80EF11C20E3E21AF1084F01F2
S214001DA0819190ED980F9A3050F38E32D1F5D40190
S214001DB011962C912A3259F0A4014F5F5F4F80EDA7
S214001DC0820F8A3078F04A01A12CB12C25C0B2E0EF
S214001DD08B0E911CF601A080B18096012E5F3F4FBE
S214001DE069011AC0F4013296A12CB12CC501880FE6
S214001DF0991FAA0CBB1CAA0CBB1CAA0CBB1CA80EC9
S214001E00B91EA20EB11C30E3A31AB1084F012191EE
S214001E1080ED820F8A3050F3BB203CF4A12CB12C0D
S214001E2004C0AA24AA94BB24BA94D4018C918C36FC
S214001E3019F4BFEF8B1A9B0AF4018081882309F4FA
S214001E401DC1843609F4A1C068F4883509F4B4C00D
S214001E5020F4803509F4D0C0E6C08236A1F083367F
S214001E6089F1E1C0833709F460C030F4803709F4A3
S214001E70C3C08137D1F1D7C0853709F49DC08837F4
S214001E8009F49AC0D0C05601F2E0AF0EB11CD601DC
S214001E908D919C91892B59F0930144E050E066E2C5
S214001EA071E0C1017CDD480E591E6501CEC093016C
S214001EB045E050E06BE271E0C10171DD480E591E4D
S214001EC06501C3C05601B2E0AB0EB11CF6018081BD
S214001ED08983930141E050E0BE016F5F7F4FC101EF
S214001EE05EDD480E591E6501B0C096012E5F3F4F5D
S214001EF03C832B83BE016F5F7F4FD6018D919C91F3
S214001F00DADBBB203CF029813A81A216B30610F436
S214001F10BA82A98249815A819301BC01C1013FDD81
S214001F20480E591ECB80DC8090C0F6013296FC83AA
S214001F30EB83D6016D917C91A114B10409F495C090
S214001F406115710561F4930146E050E061E371E0CC
S214001F50C10125DD480E591ECB80DC8076C0FB0112
S214001F6001900020E9F73197AF01461B570BBB20C5
S214001F7024F0A416B50608F4A5019301C1010FDDEF
S214001F80480E591ECB80DC8060C0F6013296FC837A
S214001F90EB83D6016D917C915701C02E730101E64B
S214001FA010E02AE030E041E050E0C101B7DD480E25
S214001FB0591ECB80DC8049C0F6013296FC83EB8349
S214001FC0482F407F4F5050E090E00196867099274A
S214001FD020E130E0281B390BD6016D917C9157012A
S214001FE0C02E73018A0140E050E0C10197DD480E23
S214001FF0591ECB80DC8029C0F6013496FC83EB8327
S214002000D6016D917C915701C02E730101E610E058
S21400201020E130E040E050E0C10180DD480E591E6E
S214002020CB80DC8012C0853211F00E9440C2D10104
S2140020301296ED91FC91139741E050E0B4018D911A
S2140020409C910995BFEF4B1A5B0AD401119636CEC8
S214002050AA15BB0508F059CE46CE00E2612C712CBD
S214002060F4018081E12CF12CA0CEFB010190002030
S214002070E9F73197AF01461B570B7BCFC2010F9094
S2140020800F900F900F90DF91CF911F910F91FF90BF
S214002090EF90DF90CF90BF90AF909F908F907F9003
S2140020A06F905F904F903F902F900895CF93DF935F
S2140020B0CDB7DEB7AE01475F5F4F6F8178858D8104
S2140020C09E81E1DDDF91CF9108950F931F93CF930B
S2140020D0DF93182F092FEB018D818F938C818F93BF
S2140020E08B818F938A818F938FED91E09F938F934F
S2140020F00F931F93DBDF8E819F812DB73EB7285F3E
S2140021003F4F0FB6F8943EBF0FBE2DBF81309105EE
S21400211031F467EB7EE0812F902F1ADC0FC09F937F
S2140021208F938CEE91E09F938F930F931F93BEDF58
S2140021300F900F900F900F900F900F90DF91CF9110
S2140021401F910F910895FB0123812F9322812F93D6
S2140021502BEA3DE03F932F939F938F93A7DF0F903B
S2140021600F900F900F900F900F900895FB01258110
S2140021702F9324812F9322EF31E03F932F939F9349
S2140021808F9394DF0F900F900F900F900F900F90FB
S21400219008958038910540F4FC01E556F64D80819F
S2140021A086FB882780F901C080E081700895C0977B
S2140021B08A30910510F08F7D07970895CF93DF93AF
S2140021C0009781F0EC01EE81FF818A819B81099561
S2140021D0CE018196A0DB8A8D9B8D0E942908CE01B8
S2140021E00E942908DF91CF9108958E3D910551F008
S2140021F080FF0AC09595879521E0892B09F020E09D
S214002200822F03C081E001C080E0817008958E3F78
S214002210910551F080FF0AC09595879521E0892B9E
S21400222009F420E0822F03C081E001C080E08170C5
S2140022300895CF92DF92EF92FF920F931F93DC01E7
S214002240ED91FC91309721F4DA011D921C922EC07C
S2140022509F0123703327232B31F0FA01918380836B
S214002260E1E0F0E023C0C480D580E680F780DD247E
S214002270EE24FF248B0120E030E0C016D106E206F3
S214002280F30631F0DA018D939C93E1E0F0E00EC0A6
S214002290CF010896DA018D939C9384819581A6815F
S2140022A0B781892F9A2FAB2FBB27FC01CF011F9137
S2140022B00F91FF90EF90DF90CF900895CF93DF932C
S2140022C0FC0182819381009749F0FC01D281C38191
S2140022D00E9429088D2F9C2F0097B9F7DF91CF9188
S2140022E00895CF93DF93EC0189A19AA10E94290853
S2140022F0CE010E942908DF91CF910895FC01A78D99
S214002300B0A1109709F181A192A1FC012481358129
S21400231062177307D9F09C012A5F3F4F40E050E0F8
S2140023200BC0C9012A5F3F4FF90132970190F08137
S214002330E02DE617F70751F04F5F5F4F4A175B0730
S21400234081F780E090E0089580E090E00895FC0139
S21400235001C0F9012181328121153105D1F7CF0164
S214002360CDCF0895EF92FF920F931F93CF93DF93F5
S2140023708C017B01CA01E901B901C0DFFC01892B90
S21400238011F40E9440C29081913059F4D701129600
S214002390ED91FC91139740E050E0BE01C80109950D
S2140023A029C0923059F4D7011296ED91FC911397FB
S2140023B041E050E0BE01C80109951CC0933059F4B5
S2140023C042815381D701ED91FC9120E030E0BE01BF
S2140023D0C80109950FC09450923010F00E9440C278
S2140023E042815381D701ED91FC9121E030E0BE019E
S2140023F0C8010995DF91CF911F910F91FF90EF9043
S2140024000895CF93DF93EC018F8598890E94290861
S214002410CE010E942908DF91CF9108953F924F92F6
S2140024205F926F927F928F929F92AF92BF92CF925F
S214002430DF92EF92FF920F931F93CF93DF93EC01FF
S214002440362E2A016B831E821D821C8258874F837C
S2140024501A86198681E090E09C878B8743E04617B2
S21400246060F08F859889009741F04D855E85440F12
S214002470551F6FEF7FEF0E94ACC21E8A1D8A1A8A14
S214002480198AD20157966D907C90589759968D91DF
S2140024909C915A97860D971D009711F481E090E065
S2140024A0F201238D348DC584D684FFE0CF22DD244F
S2140024B0D20151960D911C91529753968D909C90F7
S2140024C054975596AD90BC9056970197622F6170C1
S2140024D0660F660F402F4370642B482F4F70440FD3
S2140024E0440F440F642B3C0176946794769467946B
S2140024F076946794769467947901F694E7941695A3
S214002500079516950795C4018A299B298C299D292C
S2140025108E299F29802B912B86299729892B09F4B0
S2140025203FC06068CE010E9486048C2D8170682FA3
S2140025306295660F660F607C862D83708295807F1D
S214002540862B6A2D6170862B982D9170990F990FA6
S214002550990F682F692B902F9170990F990F862FDE
S214002560892B6E2D6170660F682B7694679476942F
S2140025706794F694E794D694C79416950795969420
S2140025808794B694A794C3018E299F298C299D29E8
S214002590802B912B882999298A299B29892B09F632
S2140025A0CE010E948604B2E0B31548F58B8D9C8D53
S2140025B02D8D3E8D682F6F73660F422F4170642BF2
S2140025C0369527953E8F2D8F0024880F991F001C67
S2140025D0880F991F001C892F902D9C8F8B8F822B24
S2140025E0932B892B09F06068CE010E9486042D8DFE
S2140025F03E8D8B8D9C8D822B932B892BB9F68989EA
S2140026009A899C8F8B8FF2010385148562E070E0B7
S214002610CE010E946804DC010C9311961C93F20113
S2140026200185128562E070E0CE010E946804DC013C
S2140026300C9311961C9318A21F8E1CA21BA2B4E02A
S2140026403B1254C0F2012189328983899489820F12
S214002650931F892BB9F54AC0218120FF08C022812B
S21400266033812C153D0519F4848195810AC00196A5
S21400267036968617970781F78E2D9F2D02C08E2DD2
S2140026809F2DD601AA0FBB1F2DA13EA1A20FB31FDF
S214002690880F991F880F991F880F991F82608D9346
S2140026A09C934F5F5F4FD20151962D913C9152976C
S2140026B053968D919C915497820F931F48175907F4
S2140026C040F014C040E050E00F2EF5E0EF2EF02D65
S2140026D0F12C6A01F201678D70A16115710579F21E
S2140026E001A0F2A1E02D80E090E0B6CFDF91CF917F
S2140026F01F910F91FF90EF90DF90CF90BF90AF901B
S2140027009F908F907F906F905F904F903F9008952E
S214002710FC0183818130C1F085819681680F791F25
S214002720772314F40E9440C276836583A781B08520
S21400273059968D919C915A978617970720F45A962A
S2140027407C936E935997148208951F93CF93DF93CB
S214002750EC01142FDDDF61E070E0CE010E948F04F3
S214002760FC011083DF91CF911F910895CF92DF92E5
S214002770EF92FF920F931F93CF93DF9300D01F9299
S214002780CDB7DEB76C018901E0DF7E0184E0E80E9C
S214002790F11C802F8F77F70182937F01000F012FA6
S2140027A0001F110B11950115110599F7BE016C5FFD
S2140027B07F4F6E1B7F0BC6010E948F04AC01CE01BB
S2140027C00396E816F90669F0F701DA019C01919183
S2140027D090689D93E217F307D1F72E193F09420F31
S2140027E0531F8B81FA0180830F900F900F90DF911B
S2140027F0CF911F910F91FF90EF90DF90CF900895AB
S214002800BA0148E2420F9B0160E070E0AFCF089546
S214002810EF92FF920F931F93EF2881F0F02FEE2791
S214002820E22BF32B4F5F000F111F020F131F0E5FDB
S2140028301F4F601B710B9F0199DF0CC0F02FEE2716
S214002840E22BF32B000F111F020F131F601B710BDF
S2140028509F018CDF1F910F91FF90EF900895CF930B
S214002860DF93FC01C781D085A989BA898B899C89A9
S2140028708A0F9B1FC1A1D2A1DC01AC0FBD1F83A193
S21400288094A1EC012196D4A3C3A38A0F9B1F538166
S214002890543049F4C5A1D6A1DC01AA0FBB1FAC0F6A
S2140028A0BD1F2D933C939C01CF0160DFDF91CF913C
S2140028B008952115310541F44031510528F440555D
S2140028C061E070E042CF089564E2620F9A01462FFD
S2140028D061E070E04BCF08952115310541F4403199
S2140028E0510528F440546FEF7FEF2FCF089566E22E
S2140028F0620F9A01462F6FEF7FEF38CF0895FF9251
S2140029000F931F93CF93DF93EC01F42E022F132F18
S214002910FFDE63E070E0CE010E948F04FC01F082CF
S21400292001831283DF91CF911F910F91FF9008953D
S2140029309B014F5E61E070E0E2CF08959B014A5E26
S2140029406FEF7FEFDCCF08959B01475E60E070E09D
S214002950D6CF0895FF920F931F93CF93DF93EC018A
S214002960F42E8901D5DE8B81843088F0000F111F8C
S214002970EF85F889E00FF11F8D899E890DEF1FE71F
S214002980081B190B80819181080F191F02C000E0F7
S21400299010E063E070E0CE010E948F04FC01F0823C
S2140029A001831283DF91CF911F910F91FF900895BD
S2140029B0FF920F931F93CF93DF93EC01F42E8901C0
S2140029C0A7DE8B81843088F0000F111FEF85F88911
S2140029D0E00FF11F8D899E890DEF1FEF081B190B65
S2140029E080819181080F191F02C000E010E063E0AB
S2140029F070E0CE010E948F04FC01F08201831283F6
S214002A00DF91CF911F910F91FF9008950F931F9321
S214002A10CF93DF938C01EB0160E070E079DEF80184
S214002A208381813061F125853685C217D30710F082
S214002A300E9440C2843098F4CC0FDD1FF8018785D1
S214002A409089C80FD91F88819981019611F00E943C
S214002A5040C2F801858996899983888310C0CC0F77
S214002A60DD1FF80187859089C80FD91F2881398115
S214002A70858996892817390711F00E9440C2DF9190
S214002A80CF911F910F9108959B014130510541F060
S214002A904230510541F449E66FEF7FEF56CE089578
S214002AA061E070E002C06FEF7FEF455E28CF0895CB
S214002AB06C3079F5DC011796ED91FC9118974189F9
S214002AC0528923893489240F351F5F964D915C9176
S214002AD09097BA016F5F7F4F90967C936E935F9747
S214002AE0240F351F13964C911397443069F495962E
S214002AF0ED91FC919697A901440F551FE40FF51F21
S214002B0046E15CE15183408343E261E070E02ECE13
S214002B10089543E4460F61E070E017CE0895CF9223
S214002B20DF92EF92FF920F931F93CF93DF9300D025
S214002B301F92CDB7DEB76C018B01CB014096803477
S214002B40910538F440E8460F61E070E0C601FDDD0F
S214002B5047C042E261E070E0C601F7DD7E0184E036
S214002B60E80EF11C202F802F8F77F70182937F01CC
S214002B70000F012F001F110BC8010196029790F756
S214002B800F3FFFEF1F0739F426FD0CC0F7018FE754
S214002B9082937F0107C0012B29F426FF03C0F701AB
S214002BA012927F01BE016C5F7F4F6E197F09C601CE
S214002BB00E948F04AC01CE010396E816F90669F070
S214002BC0F701DA019C01919190689D93E217F30753
S214002BD0D1F72E193F09420F531F8B81FA018083CC
S214002BE00F900F900F90DF91CF911F910F91FF9054
S214002BF0EF90DF90CF9008959B0140E161E070E098
S214002C007ECE0895FC01A781B08551962D913C910A
S214002C10529753968D919C915497280F391F878D04
S214002C2090A1AC014F5F5F4F50A3478F280F391F0D
S214002C308381843049F4A5A1B6A1C901880F991FE4
S214002C40A80FB91F6D937C9343E261E070E0CF015B
S214002C508DCD0895FB0160857185FC01838D948D73
S214002C60D1CF089543E561E070E06FCD08959B01F4
S214002C70A42FB0E0AA0FBB1FE1E0F0E0BF016A1B83
S214002C807B0B411102C044E101C045E138CE0895F6
S214002C9044E561E070E059CD089547E561E070E0F5
S214002CA054CD089548E562E070E04FCD089549E5BB
S214002CB06FEF7FEF4ACD08954AE560E070E045CDBE
S214002CC008950F931F93CF93DF93EC018B0141156B
S214002CD0510531F49B0143E160E070E010DE0CC06A
S214002CE04230510519F4BEDFCE01E6DF980148E117
S214002CF06EEF7FEFCE0103DEDF91CF911F910F9134
S214002D000895FB0160857185729562956F706727DF
S214002D107F70672740E050E0FC01838D948DD1CF13
S214002D2008954BE560E070E010CD0895CF93DF93F3
S214002D30EC016115710529F445E56FEF7FEF05DDC0
S214002D400BC06230710519F48DDFCE01EADF46E56F
S214002D506DEF7FEFCE01F9DCDF91CF9108959B01F7
S214002D6042E460E070E0F6CD08959A01662329F00B
S214002D7043E46FEF7FEFEECD089544E46FEF7FEF0F
S214002D80E9CD08959A01662329F045E46FEF7FEFB9
S214002D90E1CD089546E46FEF7FEFDCCD0895EF9226
S214002DA0FF920F931F93CF93DF937C01EB018A0171
S214002DB0452BC9F4DD237CF469E50E94B10469E57E
S214002DC0C7010E94B10469E5C7010E94B10469E524
S214002DD0C7010E94B1049E013F7742E460E070E0C4
S214002DE0C701B8DD0FC09B013F7740E460E070E0AC
S214002DF0B1DDDD2314F060E001C060E8602BC701A0
S214002E000E94B104DF91CF911F910F91FF90EF9038
S214002E1008959B014115510519F060E070E002C06D
S214002E2062E070E0495BC4CD0895CF93DF93EC0178
S214002E308B8D9C8DEEDF8B899C8901969C8B8B8B72
S214002E40E98DFA8D238D348D2817390710F4948F69
S214002E50838FDF91CF9108950F931F93CF93DF93C6
S214002E60EC018B016EE024DEB801CE01CFDD4CE52F
S214002E7062E070E0CE0169DC6CEF7FEFCE0148DCEB
S214002E80DF91CF911F910F9108954DE56FEF7FEF82
S214002E905CCC0895FC01238934892115310511F491
S214002EA00E9440C221503109348B238B838D948D30
S214002EB0ECCF0895662321F063E070E04FE503C091
S214002EC060E070E04EE541CC08959B014BE461E084
S214002ED070E06ECD08956CEF7FEF1ACC08959B01DD
S214002EE04AE460E070E064CD089540ED460F60E08F
S214002EF070E02BCC0895CF93DF93EC01623341F062
S214002F00633341F047ED460F6FEF7FEF1EDC0DC0D9
S214002F1046E001C047E049526FEF7FEFCE0115DC77
S214002F2043ED60E070E0CE0110DCDF91CF910895B4
S214002F309B014230510531F0E1E0F0E0BF01621B39
S214002F40730B02C061E070E0465D10CC089542E667
S214002F506EEF7FEFFACB089521E0633009F420E0AE
S214002F60622F70E09B01240F351F220F331F220FA4
S214002F70331F262B372B609570954FE2F7CB0895BD
S214002F809B016150710940E3F1CB0895342F22274D
S214002F90262B372B640F751F41E3E8CB0895452B8E
S214002FA051F4232B41F4FB012781308542E361E095
S214002FB070E055CC0895FB012781308543E36FEF21
S214002FC07FEF4DCC0895EF92FF920F931F93CF9310
S214002FD0DF937C01EA01232B81F4012B71F4FB01C2
S214002FE02781308561E070E0641B750B40E237DCBA
S214002FF06C2FC7010E94B10413C0CF3FD10519F052
S21400300010F00E9440C2FB0127813085BE0160950A
S214003010709541E2C70123DC6C2FC7010E94B10402
S214003020DF91CF911F910F91FF90EF9008952F920F
S2140030303F924F925F926F927F928F929F92AF9243
S214003040BF92CF92DF92EF92FF920F931F93CF9390
S214003050DF9300D000D0CDB7DEB73C017B011A016C
S2140030602901552314F40E9440C2332314F40E940D
S21400307040C21216130654F4DB011D968D919C91E6
S2140030801E9788601E969C938E931D97F701368A2E
S214003090258AD3015996ED91FC915A978081882311
S2140030A009F46AC0878D90A1892B09F465C0812C2C
S2140030B0912CA12CB12C1A821982C1A0D2A0C80CC6
S2140030C0D91CF60180818450823008F040C0D701B8
S2140030D05F968D919C919097892BC9F100E010E046
S2140030E01C821B82D7019196ED91FC919297E00F7E
S2140030F0F11F80818530D1F4D60114966D917C91B4
S2140031001597848195816817790781F412964D91F9
S2140031105C91139720E030E0F301838D948DC9DB3A
S21400312029813A812F5F3F4F3A8329838B819C8187
S21400313001969C838B830A5F1F4FD7015F968D9104
S2140031409C919097EB81FC81E817F90758F2FFEF06
S214003150AF1ABF0AD3015996ED91FC915A97B6E083
S2140031608B0E911C878D90A1A816B90608F4A5CFE2
S214003170E981FA81EF2B51F49201A101B701D30145
S2140031805B968D919C915C970ADF09C08201910144
S21400319049815A81B701F301838D948D14DF0F9016
S2140031A00F900F900F90DF91CF911F910F91FF908E
S2140031B0EF90DF90CF90BF90AF909F908F907F90D2
S2140031C06F905F904F903F902F900895BF92CF9250
S2140031D0DF92EF92FF920F931F93CF93DF93EC0152
S2140031E06B01BA01422FBC80EB84FC840D851E85E2
S2140031F01C821C861B861E861D8623E23EE50E94D8
S214003200B7018D819E81892B09F56D857E856115B7
S214003210710561F08B859C85892B41F440E050E078
S2140032208B8D9C8D85DE8B8D9C8D1CDD2B853C854A
S2140032304D855E85B601CE01FADE81E0B11001C093
S21400324080E08C83FC86EB861E870D87DF91CF910E
S2140032501F910F91FF90EF90DF90CF90BF90089551
S214003260EF92FF920F931F9379018A019B0144E32B
S21400327050E060E070E0CCDA1F910F91FF90EF9085
S2140032800895EF92FF920F931F9379018A019B0195
S21400329046E350E06FEF7FEFBBDA1F910F91FF9090
S2140032A0EF900895CF93DF93EC0143E66FEF7FEF47
S2140032B04CDA81E08C83DF91CF91089563307105FD
S2140032C010F00E9440C244E6460F71956195710960
S2140032D03CCA0895CF93DF93EC0147E6460F7195FD
S2140032E06195710932DAEF81F8858585968581606A
S2140032F096878587DF91CF91089564E070E008CACD
S21400330008956DEF7FEF04CA08956230710508F4E2
S2140033104CC0FC01208130E0FA01608171816115AA
S214003320710509F45EC06031710509F52033310579
S214003330E1F564C060E170E0FA01718360834CC01F
S2140033406F3631F468E070E0FA017183608344C040
S214003350623631F462E070E0FA01718360833CC04B
S2140033602AE030E0FA01318320839C0135C06830C2
S214003370710561F42033310521F5FC0121812062BD
S2140033802F3609F59C012E5F3F4F26C0623071052F
S214003390E1F420333105D9F4FC0121812062223684
S2140033A0C1F49C012E5F3F4F17C0FA012081318186
S2140033B0232B89F42AE030E0FA01318320839C0134
S2140033C00BC09C0109C09C0107C09C0105C09C0164
S2140033D003C09C0101C09C01A901481B590BCA01EE
S2140033E008952033310531F79C012E5F3F4FFC01D5
S2140033F061816062683709F0A3CF9CCF9C012E5F85
S2140034003F4FFC0161816062683709F493CF9C01ED
S214003410E3CFCF93DF93EC01888181FD04C08C81DC
S2140034209D810E9429081B821A82888119828770D2
S21400343081608D7F88831D821C82DF91CF910895E5
S2140034409C0123703327232B21F4FC01808191817A
S2140034500895FC01EF70FF27EE0FFF1FED57F84EA3
S2140034608081918108950F931F93CF93DF93EA0194
S21400347089019A0123703327232BD1F5E881F9813E
S214003480228125FF18C026FF10C0FB01208531854C
S2140034902F533B4421F4F801518340832CC0F8019C
S2140034A0518340839383828326C0F80151834083EF
S2140034B09383828320C02AE1EB30F20731F48A81BD
S2140034C09B81F8019183808316C0EB5EF94161F41D
S2140034D0009711F0B5DFBC018A819B81F8019183CA
S2140034E080837383628307C0F8015183408303C0DF
S2140034F0F80151834083DF91CF911F910F9108957A
S2140035000F931F93CF93DF93EC018B0199DFDC01C0
S2140035105296ED91FC91539744E050E0B801CE01ED
S2140035200995DF91CF911F910F910895EF92FF9229
S2140035300F931F93CF93DF93EC018B017A0180DF0B
S214003540DC015296ED91FC915397A701B801CE018C
S2140035500995DF91CF911F910F91FF90EF900895FD
S2140035600F931F93CF93DF93EC018B0169DFDC0190
S2140035705296ED91FC91539740E050E0B801CE0191
S2140035800995DF91CF911F910F91089559DFFC01A6
S214003590848195810C94570B0895FF920F931F9387
S2140035A0CF93DF93182F092FEB01F42E209729F4E1
S2140035B06FEF71E00E94A80C22C0CB0141DFDC0156
S2140035C01696ED91FC911797309731F04F2DBE016E
S2140035D0812F902F099513C0FC0125812F9384819C
S2140035E08F9385E092E09F938F930F931F930E9493
S2140035F056100F900F900F900F900F900F90DF9136
S214003600CF911F910F91FF900895AF92BF92CF92E6
S214003610DF92EF92FF920F931F93CF93DF9300D02A
S214003620CDB7DEB77C015B016AE072E00E94A80CB1
S2140036301A821982DD24D394C12C19C0D11005C07A
S2140036406CE072E0C7010E94A80CF80160817181ED
S21400365041E0C701A2DF6BE172E0C7010E94A80C3F
S214003660F8016281738141E0C70197DFDC2CBE015F
S2140036706F5F7F4FC5010E94BA048C01892BF1F65B
S2140036806DE576E1C7010E94A80C0F900F90DF91C0
S214003690CF911F910F91FF90EF90DF90CF90BF904A
S2140036A0AF900895EF92FF920F931F93CF93DF93FF
S2140036B07C018B016BE976E00E94A80CD801149679
S2140036C08D919C911597892B49F420C0209741F045
S2140036D06CE072E0C7010E94A80C02C0C0E0D0E017
S2140036E0CE01880F991FD8011696ED91FC91179779
S2140036F0E80FF91F6081718141E0C7014EDF219616
S214003700F80184819581C817D90700F36FE072E04D
S214003710C7010E94A80CDF91CF911F910F91FF90D7
S214003720EF900895CF92DF92EF92FF920F931F9340
S214003730CF93DF937C016B0161E172E00E94A80CDD
S214003740F60182819381892B11F186010C5F1F4F50
S214003750C0E0D0E007C0209729F06CE072E0C70117
S2140037600E94A80CF801619171918F0141E0C70198
S21400377014DF2196F60182819381C817D90758F382
S214003780019729F463E172E0C7010E94A80C67EB79
S2140037907EE0C7010E94A80CDF91CF911F910F9188
S2140037A0FF90EF90DF90CF900895EF92FF920F93E7
S2140037B01F93CF93DF937C018B01C42FD42FDF7729
S2140037C044237CF08FEF8D0F823058F4DB01ED91AF
S2140037D0FC91848195810E94570BBC01C7010E9411
S2140037E0A80CD23029F56BE172E0C7010E94A80C44
S2140037F0D8011696ED91FC911797309721F08281AB
S2140038009381009731F46DE47FE0C7010E94A80C15
S21400381012C0019731F46481758140E0C701BDDEB6
S2140038200AC0F801668177814C2FC7017BDF03C091
S214003830DD23F1F2F6CFDF91CF911F910F91FF902C
S214003840EF9008950F931F93CF93DF93EC018B01B6
S21400385065E172E00E94A80CF8016281738140E085
S214003860CE019BDE6CE072E0CE010E94A80CF8014F
S2140038706481758140E0CE0190DE6DEF71E0CE018F
S2140038800E94A80CDF91CF911F910F91089586306A
S214003890910559F0BC0141E08BE19AE27EDE6CE4D2
S2140038A07FE08BE19AE20E94A80C86E090E0089503
S2140038B08E30910529F4FB011182108281E0089573
S2140038C08E31910531F481E090E0FB019183808395
S2140038D0089580FF07C095958795FB0191838083A7
S2140038E081E008959C0123703327232B69F4FC01A3
S2140038F020813181285B3D4149F495958795FB01F0
S2140039009183808381E0089580E0089580E00895A3
S214003910CF93DF93EC0187709927029779F0CE0159
S21400392083709927892BD1F4888199812BE1823184
S214003930920771F0825F9A4189F40AC0CE0196958B
S214003940879596958795969587950E94510B02C008
S2140039508C819D81880F991F81600FC0CE0170DD1C
S214003960DC011C96ED91FC911D97309721F0BE016D
S21400397085E0099502C080E090E0DF91CF91089540
S214003980CF93DF938E30910549F18E31910541F149
S2140039908630910539F180FF05C021E0019729F5B1
S2140039A020E023C0EC014CDDDC011C96ED91FC917F
S2140039B01D97309751F0BE0184E00995009729F0D5
S2140039C021E04E9791F020E010C0CE01A1DF0097D5
S2140039D059F021E0019749F420E007C020E005C037
S2140039E021E003C020E001C021E0822FDF91CF91CB
S2140039F00895EF92FF920F931F93CF93DF93EC01FE
S214003A008B017A011DDDDC015896ED91FC915997EA
S214003A10309749F0A701B801CE01099521E0892B1E
S214003A2019F020E001C020E0822FDF91CF911F9196
S214003A300F91FF90EF900895FC01019620812223BC
S214003A40DCF3828190E0982F88272181822B0895CD
S214003A50DC011496ED91FC911597CF01019620811B
S214003A60222334F40196FC01319720812223D4F3DB
S214003A70E3CF08950F931F93CF93DF93182F092F4B
S214003A80EB018C819D81E4DFDF93CF939F938F932F
S214003A908EE192E09F938F930F931F930E94561090
S214003AA08DB79EB708960FB6F8949EBF0FBE8DBF13
S214003AB0DF91CF911F910F9108950F931F93CF938E
S214003AC0DF938A01AB01425051094F30510510F087
S214003AD00E9440C2FB01E550F24E608170E00E94F9
S214003AE0E8C1EB01222351F09B012F5F3F4FABEA69
S214003AF0BAEA0E9431C29695879502C080E090E0AF
S214003B000115110541F0F80101900020E9F7319701
S214003B10E01BF10B02C0E0E0F0E023968C0F9D1F47
S214003B208E0F9F1FDF91CF911F910F9108955F9287
S214003B306F927F928F929F92AF92BF92CF92DF92B8
S214003B40EF92FF920F931F93CF93DF93782E692EF9
S214003B504B01522E8B01040F151F6017710708F0DA
S214003B608EC0FB01980190E041E08191873219F008
S214003B70823211F406C0942FE217F307B1F780E003
S214003B8001C081E0992309F48EC081118FC0C2E282
S214003B90D0E08EC0F40181914F01282F30E0C2178B
S214003BA0D30779F4DF93CF93BF92AF926F927F9251
S214003BB00E9456100F900F900F900F900F900F903E
S214003BC049C08C3539F460E472E0872D962D0E944A
S214003BD0A80C40C08032A8F08F3771F1552011F044
S214003BE088237CF01F928F93DF92CF926F927F9202
S214003BF00E9456100F900F900F900F900F900F90FE
S214003C0029C08A3039F463E472E0872D962D0E942D
S214003C10A80C20C08D3039F466E472E0872D962D0E
S214003C200E94A80C17C0893039F469E472E0872D29
S214003C30962D0E94A80C0EC01F928F93FF92EF92B3
S214003C406F927F920E9456100F900F900F900F90D9
S214003C500F900F900815190509F09CCFDF93CF93AE
S214003C608DE392E09F938F936F927F920E945610FF
S214003C700F900F900F900F900F900F903CC01F92D8
S214003C8087E28F938DE392E09F938F936F927F925C
S214003C900E9456100F900F900F900F900F900F905D
S214003CA0C7E2D0E0DBCFC7E2D0E002C0C7E2D0E098
S214003CB0DF93CF938DE392E09F938F936F927F92E3
S214003CC00E9456100F900F900F900F900F900F902D
S214003CD00F2EFCE4EF2EF2E0FF2EF02D0F2EFDE36C
S214003CE0CF2EF2E0DF2EF02D0F2EFCE3AF2EF2E00B
S214003CF0BF2EF02D4FCFDF91CF911F910F91FF90E8
S214003D00EF90DF90CF90BF90AF909F908F907F9076
S214003D106F905F900895AF92BF92CF92DF92EF922E
S214003D20FF920F931F93CF93DF9300D0CDB7DEB7EC
S214003D306C017B01042FCB0187709927029771F4E1
S214003D40BE016F5F7F4FC7019695879596958795BD
S214003D50969587950E945B0B5C010BC0DB01149661
S214003D608D919C9115979A8389831696AD90BC90F9
S214003D701797C70183709927892B49F411E0F7013B
S214003D8080819181825F9A4119F010E001C010E0B5
S214003D901170043021F001110EC011110EC04981BE
S214003DA05A81D6011296ED91FC911397B5018D912B
S214003DB09C91099514C0112361F0D6011296ED91DD
S214003DC0FC91139741E050E063E572E08D919C9181
S214003DD0099549815A81212FB501C601A8DE0F90A9
S214003DE00F90DF91CF911F910F91FF90EF90DF9092
S214003DF0CF90BF90AF9008956F927F928F929F92D0
S214003E00AF92BF92CF92DF92EF92FF920F931F93E3
S214003E10CF93DF936217730708F179014A016C01AB
S214003E201016110634F45B01A21AB30A612C712C29
S214003E3005C03B01621A730AA12CB12CE601C60D1F
S214003E40D71DA701B401CE010E9485C2892B49F077
S214003E506A147B0449F0600E711EF0CF80E090E09B
S214003E6005C08C2F9D2F02C080E090E0DF91CF919F
S214003E701F910F91FF90EF90DF90CF90BF90AF9083
S214003E809F908F907F906F9008958F929F92AF92A1
S214003E90BF92CF92DF92EF92FF920F931F93CF9332
S214003EA0DF9300D000D0CDB7DEB77C018B016C016C
S214003EB087E0C822DD24E2E0CE16D104D9F4CB0197
S214003EC087709927029739F421E0E616F70609F479
S214003ED076C020E074C0C70196958795969587951D
S214003EE0969587950E944B0B4C015801F7E0AF2240
S214003EF0BB2415C0F701828093805B01F7E0AF22F8
S214003F00BB2482E0A816B10451F4CB0196958795A0
S214003F1096958795969587950E944B0B03C0F8015A
S214003F20828193818114910431F0009721F08815E5
S214003F30990509F041C0F2E0CF16D10471F4BE0134
S214003F406D5F7F4FC7019695879596958795969551
S214003F5087950E945B0B7C0107C0F70184819581E1
S214003F609C838B83E680F780F2E0AF16B10471F491
S214003F70BE016F5F7F4FC80196958795969587958A
S214003F80969587950E945B0BBC0107C0F80184815B
S214003F9095819A838983668177814B815C812981AB
S214003FA03A814217530751F4C7010E9485C221E0A7
S214003FB0892B29F020E003C020E001C020E0822FFA
S214003FC00F900F900F900F90DF91CF911F910F9150
S214003FD0FF90EF90DF90CF90BF90AF909F908F9024
S214003FE008954F925F926F927F928F929F92AF92B8
S214003FF0BF92CF92DF92EF92FF920F931F93CF93D1
S214004000DF93782EEB018A0125E082130BC00F2E7A
S214004010FEE05F2EF02D612C0F2EFEE1EF2EF02D30
S214004020F12C0AC00F2EFEE15F2EF02D612C0F2E14
S214004030FEE0EF2EF02DF12CC017D10749F4C0FD9D
S21400404096C0CE01FDD9DC0112968C9182FF92C0FB
S2140040502C2FCE0187709927029751F0CE018370DE
S2140040609927892BE9F48881998182519B41C1F473
S214004070C80187709927029759F0C801837099275D
S214004080892BD9F4F8018081918182519B41F1F40A
S214004090B801CE01FADE811170C08E2D9F2D85C02D
S2140040A020FF1DC000FD6CC09C2F8D2FE801092F3E
S2140040B0182FCC24C394D12C18C09C2F8D2FE80128
S2140040C0092F182FCC24C394D12C0FC09C2F8D2FD2
S2140040D0E801092F182FCC24C394D12C06C0C12C7C
S2140040E0D12C03C08E01C92FD82FCE01A9D95C01CF
S2140040F0DC011E968D909C901F978114910439F1D7
S21400410012964C9043FC05C0C8019AD9A816B90669
S214004110F1F4B5E07B120BC044FE3BC0A801BE0123
S21400412085E0F4010995009709F03FC032C0A80168
S214004130BE0182E0F4010995009749F0F2E07F168F
S214004140A1F11EDC81111FC08E2D9F2D2EC02FEFDA
S214004150C21AD20A902F812F32E0C316D1040CF473
S214004160C1CFC017D10791F08E2D9F2D1EC0852D73
S214004170962D1BC0852D962D18C0852D962D15C005
S2140041808E2D9F2D12C0852D962D0FC0852D962D18
S2140041900CC0D5011E96ED91FC911F97A801BE019B
S2140041A082E00995009769F6D2CFDF91CF911F91F3
S2140041B00F91FF90EF90DF90CF90BF90AF909F90C1
S2140041C08F907F906F905F904F900895AB01BC01E9
S2140041D082E007DFD5CB0895EF92FF920F931F93EF
S2140041E0CF93DF93EC017B018A012AD9FC018489F5
S2140041F09589825B934011F00E9440C28A819B8120
S214004200F701918380832496F801D183C083DF91E0
S214004210CF911F910F91FF90EF9008959C0123700E
S2140042203327232B31F4FC01208131812E5A3A4169
S21400423011F00E9440C20C9429080895861797072B
S21400424039F19C0123703327232B21F5DC012D91B6
S2140042503C9123553A4101F5DC015C96ED91FC91C9
S2140042605D97309781F41AC0CF0183709927892B08
S214004270B9F48081918183559A41A1F4048CF58D1F
S214004280E02D309789F06E177F0771F781E008956B
S21400429081E0089580E0089580E0089580E0089524
S2140042A080E0089580E0089580E008959C012370E2
S2140042B03327232B61F4FC012081318123553A41B9
S2140042C031F4FC01208531852A54364221F068E518
S2140042D072E2B4CF089581E00895B2D8E7CF08958A
S2140042E0CF93DF93EC01F9DF811102C00E9440C238
S2140042F0CE01A6D8FC01808591858A54964219F095
S2140043008885998502C08C2F9D2FDF91CF910895C7
S214004310E7DFDC011696ED91FC9117978281938179
S214004320892B19F084819581089586E090E00895A0
S214004330CF93DF93FA0120813181232B71F0663B06
S2140043407105F9F42281338126303105D1F4FC0160
S2140043501382FA011182108214C06D33710539F48C
S214004360FC0186819781FA01918380830AC0623AB4
S214004370710519F0663C710521F4EA01C9DF9983DD
S2140043808883DF91CF910895CF92DF92EF92FF92CC
S2140043900F931F93CF93DF936B017A018901A0DF00
S2140043A0EC018C819D81009761F486E090E00E948C
S2140043B025089D838C83892B61F183E08A831B8289
S2140043C017C06A8170E02B8130E02D5F3F4F621787
S2140043D0730774F46D5F7F4F660F771F41E00E948E
S2140043E0620A0097B1F09D838C838A818D5F8A83F1
S2140043F08B81E82FF0E0EE0FFF1F2C813D81E20F4E
S214004400F31F8D5F8B83D182C082F382E282158395
S2140044100483DF91CF911F910F91FF90EF90DF9073
S214004420CF9008950F931F93CF93DF93EC018B01EA
S21400443054DF882319F0CE0103D8EC01B801CE0171
S214004440FDDEDF91CF911F910F9108950F931F937B
S214004450CF93DF93EC018B010E94201A80179107FF
S21400446039F0B801EBDE882331F08885998505C0E0
S2140044708C2F9D2F02C080E090E0DF91CF911F919E
S2140044800F910895AF92BF92CF92DF92EF92FF9274
S2140044900F931F93CF93DF935C016901232BA1F049
S2140044A0649F7001659FF00C749FF00C1124C0E0AF
S2140044B0D0E0A701B501C8010E9492C20E0D1F1DD3
S2140044C02196CC16DD06A9F7DF91CF911F910F91AB
S2140044D0FF90EF90DF90CF90BF90AF900895EF924F
S2140044E0FF920F931F93CF93DF937C01862F972F16
S2140044F0EA0142E0E416F10421F4C017D10741F5C1
S2140045002DC0E114F104A1F143E0E416F104E1F555
S2140045105C2F4D2FE801052F142F822F932F262F67
S214004520372F6894EE24E2F8F12C2EC018161906E0
S2140045308CF0C017D10731F021E0C017D10790F5F5
S21400454020E030C021E0EA94EF2861F520E02AC0A0
S21400455020E028C021E026C020E024C0A801622F69
S214004560732F0E9485C221E0892BE1F020E01AC05B
S2140045705C2F4D2FE801052F142F822F932F262F07
S214004580372FEE24E394F12C4C2F5D2F0C171D07CC
S21400459010F4402F512F622F732F0E9485C299234B
S2140045A02CF6DACF822FDF91CF911F910F91FF90DB
S2140045B0EF900895AF92BF92CF92DF92EF92FF9264
S2140045C00F931F93CF93DF9361157105C1F05A01C6
S2140045D06B01082F192FC0E0D0E0E12CF12CB501BB
S2140045E0F801819191918F01F1DD882319F0FFEF99
S2140045F0EF1AFF0A2196CC16DD0689F702C0E12CD9
S214004600F12CC701880F991F8160DF91CF911F9110
S2140046100F91FF90EF90DF90CF90BF90AF900895EE
S214004620FC01AB0183709927892B29F48081918145
S2140046308C529D4111F00E9440C264817581868132
S2140046409781B8CF0895AB019C0123703327232BA5
S21400465031F4FC01208131812E5A3A4111F00E943A
S21400466040C2FC01628173810496A4CF0895CF9363
S214004670DF9300D0CDB7DEB73A832983611109C036
S2140046809A01AC01BE016F5F7F4FC9010E9492C2C2
S21400469010C0A1E0B0E0AC0FBD1FA80FB91F009777
S2140046A041F0FA01480F591F9E919193E417F507C0
S2140046B0D9F70F900F90DF91CF9108959C01FB01E1
S2140046C018161906C4F41E161F0654F48FEF9FE33F
S2140046D00E94FCC181E06217730744F180E00895F0
S2140046E080E090ECB9010E94FCC181E0E617F70774
S2140046F0ECF080E008951E161F0654F480E090EC5F
S2140047000E94FCC181E02617370784F080E00895F8
S214004710892B59F08FEF9FE3B9010E94FCC181E01D
S214004720E617F7071CF080E0089580E008959B01E7
S2140047300E94FCC1AC0199231CF4121613062CF03F
S214004740181619062CF433231CF4CA01820F931F83
S2140047500895992344F077235CF49B0120953095C7
S214004760820F931F05C077231CF0861B970B0196BC
S2140047700E94FCC1CB010895CF92DF92EF92FF9288
S2140047800F931F93CF93DF93FC0101900020E9F76E
S21400479031976F01C81AD90A20917E01222331F180
S2140047A07C010EE711E0F80101900020E9F731974F
S2140047B0EF01C01BD10BCC15DD0578F0A601B801C2
S2140047C0C7010E9485C2892B41F4F801EC0DFD1D3E
S2140047D08081882369F08F3269F0FE0131960E0FD2
S2140047E01F1FF80180818111DECF05C080E003C065
S2140047F082E001C081E0DF91CF911F910F91FF9081
S214004800EF90DF90CF900895CF93DF93EC01B4DF65
S214004810811103C0CE010E94BD00DF91CF910895A3
S2140048208F929F92AF92BF92CF92DF92EF92FF92BB
S2140048300F931F93CF93DF937C0190917E01992372
S214004840B1F16A015B0100E010E0CEE7D1E0FE01C5
S21400485001900020E9F731974F018C1A9D0AA814A1
S214004860B90491F4A501BE01C7010E9485C2009754
S21400487059F4000F111FF801E058FE4F20813181D6
S2140048802115310571F415C094012F5F3F4FC20FFB
S214004890D31F0F5F1F4F88818111D9CF80E090E032
S2140048A008C0F6013183208382E090E002C080E0F9
S2140048B090E0DF91CF911F910F91FF90EF90DF90E6
S2140048C0CF90BF90AF909F908F900895CF93DF9337
S2140048D0CDB7DEB7AE014B5F5F4FFA0161917191C4
S2140048E0AF018BE19AE20E94430EDF91CF910895CB
S2140048F081E090E008959F938F9385EA92E09F93DE
S2140049008F93E4DF81E090E00E94C7C2E091626B83
S214004910F091636B309709F4EEDF93838283808196
S21400492091819093636B8093626B61E070E0CF013E
S21400493004960E9464C2EC016115710569F088EB6B
S2140049409FE199838883FB01448D558D6081718139
S21400495020E030E0CE0118DDCE01D8DF611571050C
S21400496011F4F3D1D3DF01D2D1DFCF92DF92EF92F1
S214004970FF920F931F93CF93DF9300D000D0CDB755
S214004980DEB78C017B016A010E94201ADC0150967A
S214004990ED91FC915197309781F084E090E09A83F6
S2140049A08983DC82CB82AE014F5F5F4FB701C801BF
S2140049B0099589819A81892B29F06DEB72E088E14F
S2140049C091E2CCDF0F900F900F900F90DF91CF9178
S2140049D01F910F91FF90EF90DF90CF900895BC014C
S2140049E088E59FE1BBDF8FEC92E0F9DFBC0188E74A
S2140049F09FE1B4DFCF92DF92EF92FF920F931F9367
S214004A00CF93DF93EC018B017A0169010E94201A93
S214004A10DC011A96ED91FC911B97309731F09601C8
S214004A20A701B801CE01099503C08EEE92E0DEDF45
S214004A30DF91CF911F910F91FF90EF90DF90CF9075
S214004A40089520E030E040E050E060E070E0D2CF33
S214004A500895CF93DF9300D0CDB7DEB77A8369830E
S214004A609E012F5F3F4F40E050E061E070E0C2DF04
S214004A700F900F90DF91CF910895FA0141E050E03A
S214004A8022813381232B11F440E050E02227332784
S214004A90241B350B220F331F2C5F3F4F2E0F3F1F5B
S214004AA0840F951FAB01BC0180819181A3CF08952F
S214004AB02F923F924F925F926F927F928F929F9229
S214004AC0AF92BF92CF92DF92EF92FF920F931F9317
S214004AD0CF93DF9300D0CDB7DEB74C011B017A0130
S214004AE059011A8309834DB65EB68901000F111F5E
S214004AF0040F151F0530110560F068018FEFC81A06
S214004B00D80ACC0CDD1CC6010E9425083C01009783
S214004B1021F5A8014F5F5F4F440F551FEDB7FEB755
S214004B20E41BF50B0FB6F894FEBF0FBEEDBF8DB7B6
S214004B309EB701966C01328221820296425051093C
S214004B4069817A810E9492C2B7016F5F7F4F96019A
S214004B50A501C4014FDF8C0116C0FC0121923192E1
S214004B60CF01A6014250510969817A810E9492C202
S214004B70B7016F5F7F4F9301A501C4013BDF8C0136
S214004B80C3010E942908C8010FB6F8945EBE0FBE86
S214004B904DBE0F900F90DF91CF911F910F91FF9018
S214004BA0EF90DF90CF90BF90AF909F908F907F90C8
S214004BB06F905F904F903F902F9008950F931F93A4
S214004BC0FB01DC0114966D917C91159789019A0181
S214004BD0AF0112968D919C9113976ADF1F910F91EA
S214004BE0089582E093E002DFCF92DF92EF92FF9289
S214004BF00F931F9369017A010B2EB1E1F694E794A7
S214004C00D794C794BA95D1F7B02DF60169017A0109
S214004C10F694E794D794C7948601672B11F020FF8B
S214004C20E0DFE017F10721F4E817F90749F0D9DFCC
S214004C308E179F0708F4D5DF0817190708F4D1DF89
S214004C401F910F91FF90EF90DF90CF9008950F93F4
S214004C501F93CF93DF93EB01BA01890122E030E086
S214004C6040E050E0CE01C0DFCD2B51F0F80180814E
S214004C7091810E94C01C811106C08EE090E005C0A4
S214004C808EE090E002C08EE190E0DF91CF911F9120
S214004C900F910895AF92BF92CF92DF92EF92FF925C
S214004CA00F931F93CF93DF937C018B01BA015901B9
S214004CB02EEF3FEF41E050E0C80196DF88E090E03D
S214004CC00E942508EC01892B11F4CAE6DBE6F9827E
S214004CD0E8821D821C8201151105E1F0680182E060
S214004CE0C80ED11CCC0CDD1CC6010E9425087C0118
S214004CF0892BB9F08EEA9AE1F701918380831383BA
S214004D000283A60144505109B501C70104960E94CA
S214004D1092C20DC00F2EFAEAEF2EFAE1FF2EF02D0A
S214004D2006C00F2EFAEAEF2EFAE1FF2EF02DFF82D4
S214004D30EE82CE01DF91CF911F910F91FF90EF9001
S214004D40DF90CF90BF90AF900895FC01208531850D
S214004D502A54364211F00E9440C220E030E040E083
S214004D6050E060E070E096CF0895CF92DF92EF9229
S214004D70FF920F931F93CF93DF9300D0CDB7DEB78C
S214004D806C017B01FC01808591858A54964211F066
S214004D900E9440C288E090E00E9425088C01892B82
S214004DA049F420E030E040E050E060E070E0C6010A
S214004DB071DF23C082E19BE1F80191838083F701D4
S214004DC001900020E9F73197BF016E197F09F801BD
S214004DD075836483F782E682C7010E94B50AF801EC
S214004DE0938382831A8309839E012F5F3F4F40E09F
S214004DF050E061E070E0C6014DDF0F900F90DF914C
S214004E00CF911F910F91FF90EF90DF90CF90089574
S214004E100F931F93CF93DF93FC0125813681232BBD
S214004E2061F48B01EC01BA0188EB9FE19EDF9E8363
S214004E308D83B801CE010E94A301DF91CF911F910F
S214004E400F9108954EE153E0E3CF08950F931F931B
S214004E50CF93DF93EC01FB018481893019F40F8531
S214004E60188902C009891A890F3FFFEF1F0721F42E
S214004E704BE353E0CE01CCDF4B895C898D899E895C
S214004E804817590710F40E9440C2481B590BB80136
S214004E908B8D9C8D0E94CF16DF91CF911F910F9125
S214004EA008956BE573E088E59FE15FDFB80143DDB9
S214004EB0CF93DF93D82FC92FF9D9882359F020E054
S214004EC030E040E050E060E070E08D2F9C2F92DDF7
S214004ED0D82FC92F8D2F9C2F00DA811106C069E7C5
S214004EE073E088E79FE141DF02C08D2F9C2FDF91A2
S214004EF0CF9108956F927F928F929F92AF92BF92BA
S214004F00CF92DF92EF92FF920F931F93CF93DF9390
S214004F10CDB7DEB72D970FB6F894DEBF0FBECDBF68
S214004F205C016B013A01672B11F40E9440C2FC0140
S214004F30808591858A54964211F00E9440C288E08E
S214004F4090E00E9425088C01F60101900020E9F708
S214004F5031977F01EC18FD0847012FEF821A920A5D
S214004F60C4010E9425080115110549F420E030E02F
S214004F7040E050E060E070E0C5018CDE47C000977E
S214004F8031F4F801F582E482D782C68226C021E099
S214004F902B839D828C821F821E8299878887CE01F2
S214004FA003969B878A8784E69AE09D878C87A30171
S214004FB0B601CE010A960E94430EE885F9858E81D9
S214004FC09F81E80FF91F10828E819F81F8019583DB
S214004FD08483888599859783868382E19BE1F8019F
S214004FE09183808364817581868197810E94B50A4A
S214004FF0F801938382831A8309839E012F5F3F4FB4
S21400500040E050E061E070E0C50144DE2D960FB64A
S214005010F894DEBF0FBECDBFDF91CF911F910F91E9
S214005020FF90EF90DF90CF90BF90AF909F908F90C3
S2140050307F906F900895CF93DF93EC01CB01BA0178
S2140050409E0123703327232B29F428813981285386
S2140050503F4111F00E9440C220E030E0A901C4DDCB
S214005060EA81FB810995DF91CF9108950F931F93F5
S214005070CF93DF93EC01CB01BA0189019E01237027
S2140050803327232B29F42881398128513F4111F0F9
S2140050900E9440C222E030E0A901A6DDEA81FB8141
S2140050A0D8018D919C910995DF91CF911F910F9119
S2140050B008950F931F93CF93DF93EC01CB01BA01B2
S2140050C089019E0123703327232B29F428813981F7
S2140050D0285F3E4111F00E9440C224E030E0A90162
S2140050E083DDD80112966D917C911397EA81FB813E
S2140050F08D919C910995DF91CF911F910F91089505
S2140051000F931F93CF93DF93EC01CB01BA01890174
S2140051109E0123703327232B29F428813981285DAB
S2140051203E4111F00E9440C226E030E0A9015CDD5D
S214005130D80114964D915C91159712966D917C91BD
S2140051401397EA81FB818D919C910995DF91CF9110
S2140051501F910F9108959F92AF92BF92CF92DF92C8
S214005160EF92FF920F931F93CF93DF9300D000D060
S21400517000D0CDB7DEB78C016B01E42EF52E5901B9
S21400518083709927892B31F4D8018D919C91885B87
S2140051909E4111F00E9440C2F80192803381448102
S2140051A05581292D6E2D7F2DC6011EDD90FE29C04E
S2140051B0EB82FC829E2D990F990F990F898187703B
S2140051C0FF0CFF0CFF0CE694E694E694E694E69457
S2140051D0FE28FA82892B836084608983C601880F43
S2140051E0991F8A0D9B1D9E838D83D8011696ED917F
S2140051F0FC911797AE014F5F5F4FB501C601099549
S21400520008C0D8011696ED91FC911797B501C60116
S214005210099526960FB6F894DEBF0FBECDBFDF9178
S214005220CF911F910F91FF90EF90DF90CF90BF909E
S214005230AF909F900895FC0183709927892BC1F445
S214005240808191812AE18E3A920721F4CF010C9455
S214005250EC2008958C529D4159F484819581DB01A0
S2140052608D939C9386819781FA019183808308951C
S21400527083EA93E0BBDB0E94881C009719F483ED59
S21400528093E0B4CB0895EF92FF920F931F93CF93C2
S214005290DF93EC017B018A010E94201ADC01529602
S2140052A0ED91FC915397309731F0A801B701CE01EC
S2140052B00995009779F40115110519F485EE93E028
S2140052C095DB0430110519F48AE094E08FDB85E263
S2140052D094E08CDBDF91CF911F910F91FF90EF90C0
S2140052E008950E94F91C811103C08CE494E07ECBE3
S2140052F00895FC01828181FF03C080E090E076CBB8
S2140053000895CF93DF93EC0183709927892B39F4A6
S214005310E881F981808591858A5A994811F00E9422
S21400532040C2CE01E6DFCE0102960E94091A86E050
S21400533090E0DF91CF910895CF93DF9300D0CDB763
S214005340DEB79C01277033272230310571F09C01AF
S21400535023703327232BC9F4DC01ED91FC912685BD
S2140053603785215A384769F010C0BE016F5F7F4FFE
S2140053709695879596958795969587950E945B0B4B
S21400538007C0FC018681978103C081E794E02EDB8D
S2140053900F900F90DF91CF910895DC011896ED9154
S2140053A0FC911997309719F481E994E01FDB099571
S2140053B00895AF92BF92CF92DF92EF92FF920F9333
S2140053C01F93CF93DF9300D000D000D0CDB7DEB7C9
S2140053D05C017E836D83862F972F9C012370332775
S2140053E0232B91F5FC0120813181FAE123353F071B
S2140053F061F481E090E09A838983CE0105969C83D0
S2140054008B83CC24C394D12C10C02E5A3A41E1F49D
S214005410AE014D5F5F4FBE016F5F7F4F0E94EC2075
S214005420C980DA80C114D10439F1EB81FC81608136
S21400543071818CE16A3B780711F17F0142E0E40E4E
S214005440F11C00E010E00BC087EA94E0CFDAF70129
S214005450619171917F01FCE16A3B7F0799F0C5017C
S2140054600E941E21811111C00F5F1F4F0C151D05D4
S21400547070F38EE090E00BC08EE090E008C08EE106
S21400548090E005C08EE190E002C08EE190E02696A6
S2140054900FB6F894DEBF0FBECDBFDF91CF911F9140
S2140054A00F91FF90EF90DF90CF90BF90AF90089550
S2140054B0CF93DF93EB010E94201ABE017ADFDF91C3
S2140054C0CF9108959C0123703327232B31F4FC01E0
S2140054D02081318123553A4119F080EE94E086DA36
S2140054E068CF08950F931F93CF93DF9300D0CDB767
S2140054F0DEB7FC018B0187709927029779F0CF0100
S21400550083709927892B19F5A081B1811E968D91FC
S2140055109C911F97815A984771F019C0BE016F5F22
S2140055207F4FCF0196958795969587959695879503
S2140055300E945B0B06C0848195819A83898386814D
S214005540978129813A81F8013183208303C081E75E
S21400555094E04CDA0F900F90DF91CF911F910F914E
S2140055600895CF93DF9300D0CDB7DEB7BE016F5F4F
S2140055707F4FB8DF29813A812130310539F4FC01AB
S214005580808190E0880F991F816003C083E095E0DA
S2140055902DDA0F900F90DF91CF910895BC0188ED22
S2140055A09FE1DCD9CF92DF92EF92FF920F931F9389
S2140055B0CF93DF9300D000D0CDB7DEB76C018B0160
S2140055C0DB01ED91FC91CF0187709927029771F46A
S2140055D0BE016F5F7F4FCF0196958795969587950D
S2140055E0969587950E945B0B7C0106C08481958109
S2140055F09A838983E680F780BE016D5F7F4FF8014E
S214005600828193816FDFF3E0CF16D10418F08BE12F
S21400561095E0C4DF4B815C8129813A8124173507E8
S21400562068F0241B350BBC01C701820F931F0E9434
S21400563085C2892B31F08EE090E005C08EE090E0C8
S21400564002C08EE190E00F900F900F900F90DF91C8
S214005650CF911F910F91FF90EF90DF90CF9008951C
S214005660FF920F931F93CF93DF9300D0CDB7DEB793
S2140056708B01F22E40FF05C0559547955A83498306
S2140056800BC0BE016F5F7F4FCA010E94581C81117C
S21400569003C08DE295E0AAD989819A81992304F501
S2140056A0800F911F9A838983FF2059F099231CF459
S2140056B01A82198212C00817190778F41A83098308
S2140056C00CC089819A8199231CF08017910728F0D5
S2140056D063EF7CE088E990E241D989819A8105C030
S2140056E0F110E9CF89819A81F0CF0F900F90DF916A
S2140056F0CF911F910F91FF9008950F931F93CF9313
S214005700DF93EC018A018C819D8120E0AB01BC0116
S21400571088819981A5DF880F991FEE81FF81E80FA8
S214005720F91F11830083DF91CF911F910F91089588
S2140057300F931F93CF93DF9344305105E1F48B0111
S214005740EC010E94D00220E0A801BC01888199816A
S21400575087DF2E813F81AC01429FC001439F900DA1
S214005760529F900D11242A813B81820F931F880F30
S214005770991F816002C080E090E0DF91CF911F9179
S2140057800F910895CF93DF934430510581F4AB0118
S214005790EC016A817B8120E08881998161DF029635
S2140057A0880F991FC80FD91F8881998102C080E091
S2140057B090E0DF91CF9108956F927F928F929F92A3
S2140057C0AF92BF92CF92DF92EF92FF920F931F930A
S2140057D0CF93DF934C018B015A016901F901808157
S2140057E091810E94201A3C01F601E280F380F3E0EA
S2140057F0AF16B104A0F0F6014481558121E0B8014E
S2140058002FDFEC01F4E0AF16B10458F0F601468144
S214005810578121E0B801C30123DF8C0102C0C0E03C
S214005820D0E0C017D107B8F4CE01880F991F880EB4
S214005830991EB701F401819191914F010E94E620D3
S214005840882329F0CE01880F991F816007C0219612
S214005850C017D10770F386E495E0C1D8DF91CF91E9
S2140058601F910F91FF90EF90DF90CF90BF90AF9079
S2140058709F908F907F906F9008959B01DB01ED9134
S214005880FC91BF0163707727672B29F44081518113
S2140058904C525D4111F00E9440C264817581AC019A
S2140058A08681978189CF08959B01DB01ED91FC915C
S2140058B0BF0163707727672B29F4408151814E5AC8
